:060000000A128A1110280B
:10000800FE00030E83160313AE000A08AF007F0834
:10001800B0000A128A15282F0A128A11132883168B
:100028000313B301B401B501B601B701B8018301E7
:100038000A128A15572C831203133D088039C2000F
:100048004208C7003D08C2004207C3004308CD006C
:10005800BC1F2F28302831284D144D080319352886
:10006800362845284D0A031D3A283B2843280030E6
:10007800BD000030BC000030BB000030BA00BC1727
:100088004D280030BD000030BC000030BB000030FF
:10009800BA0041088039C2004208C7064108C200B8
:1000A8004207C3004308CC00C01F5B285C285D28BA
:1000B8004C144C0803196128622871284C0A031D46
:1000C800662867286F280030C1000030C000003063
:1000D800BF000030BE00C01779280030C1000030D2
:1000E800C0000030BF000030BE004C0803197D2856
:1000F8007E2883284D08031D822883288C280030F9
:10010800BD000030BC000030BB000030BA007F2BBF
:100118003A08C2004208F00040080A128A15302442
:100128000A128A11710883120313D3007008D200CF
:100138005208C200C301C401C5014508CB004408E8
:10014800CA004308C9004208C8005308C200C301D6
:10015800C401C5014508D1004408D0004308CF00B8
:100168004208CE003B08C2004208F0003F080A12CD
:100178008A1530240A128A11710883120313D300D6
:100188007008D2005208C200C301C401C501420868
:10019800C807430803110318013E0319D428C907E7
:1001A800440803110318013E0319DB28CA07450850
:1001B80003110318013E0319E228CB075308C200B4
:1001C800C301C401C5014208CE074308031103183F
:1001D800013E0319F028CF07440803110318013E14
:1001E8000319F728D007450803110318013E03191E
:1001F800FE28D1073C08C2004208F0003E080A1257
:100208008A1530240A128A11710883120313D30045
:100218007008D2005208C200C301C401C5014208D7
:10022800C807430803110318013E03191C29C9070D
:10023800440803110318013E03192329CA07450876
:1002480003110318013E03192A29CB075308C200DA
:10025800C301C401C5014208CE07430803110318AE
:10026800013E03193829CF07440803110318013E3A
:1002780003193F29D007450803110318013E031944
:100288004629D1070830C2000310C80DC90DCA0D90
:10029800CB0DC20B48293B08C2004208F0003E08BB
:1002A8000A128A1530240A128A117108831203135C
:1002B800D3007008D2005208C2005308C300C4011A
:1002C800C5014208C807430803110318013E031972
:1002D8006E29C907440803110318013E031975293B
:1002E800CA07450803110318013E03197C29CB07E7
:1002F8003A08C2004208F0003F080A128A15302462
:100308000A128A11710883120313D3007008D200ED
:100318005208C2005308C300C401C5014208C807F7
:10032800430803110318013E03199B29C907440810
:1003380003110318013E0319A229CA07450803112E
:100348000318013E0319A929CB070830C20003107E
:10035800C80DC90DCA0DCB0DC20BAB293A08C20096
:100368004208F0003E080A128A1530240A128A113F
:10037800710883120313D3007008D2005208C20018
:100388005308C300C401C5014208C8074308031144
:100398000318013E0319D129C9074408031103189A
:1003A800013E0319D829CA07450803110318013E5D
:1003B8000319DF29CB073B08C2004208F0004008B8
:1003C8000A128A1530240A128A117108831203133B
:1003D800D3007008D2005208C2005308C300C401F9
:1003E800C5014208CE07430803110318013E03194B
:1003F800FE29CF07440803110318013E0319052AF3
:10040800D007450803110318013E03190C2AD10728
:100418003C08C2004208F0003F080A128A1530243E
:100428000A128A11710883120313D3007008D200CC
:100438005208C2005308C300C401C5014208CE07D0
:10044800430803110318013E03192B2ACF07440858
:1004580003110318013E0319322AD0074508031176
:100468000318013E0319392AD1073C08C200420883
:10047800F00040080A128A1530240A128A117108FD
:1004880083120313D3007008D2005208C200530825
:10049800C300C401C50108300310C20DC30DC40D4B
:1004A800C50DFF3E031D502A4208CE07430803111D
:1004B8000318013E0319612ACF07440803110318E2
:1004C800013E0319682AD007450803110318013EA5
:1004D80003196F2AD1074808C2004908C3004A080F
:1004E800C4004B08C50018300310C50CC40CC30C5D
:1004F800C20CFF3E031D782A4208CE0743080311A9
:100508000318013E0319892ACF0744080311031869
:10051800013E0319902AD007450803110318013E2C
:100528000319972AD1070830C2000310C80DC90D56
:10053800CA0DCB0DC20B992A4D084C07C200C30146
:10054800C30D4208823ED20043080318013EFF3E15
:10055800D300CB2A0130C2000310CE0DCF0DD00D31
:10056800D10DC20BB02ACB1FBA2ABB2ABC2A4E1403
:100578000130C2000310C80DC90DCA0DCB0DC20B46
:10058800BE2AFF30D2070318D30AFF30D307D01F83
:10059800CE2ACF2AAE2ACC01CB1FD32AD42AF02ABE
:1005A800FF304805C200FF304905C300FF304A0547
:1005B800C4007F304B05C500450844044304420489
:1005C8000319E72AE82AEB2ACC01CC0AF02A4E1CA8
:1005D800EE2AEF2AF02AE82A4C080319F42AF52A09
:1005E800262B0130CE07003003180130CF0700302A
:1005F80003180130D007003003180130D107511C0F
:10060800062B072B262B4E08C2004F08C3005008A4
:10061800C4005108C5000130C600450DC50CC40C06
:10062800C30CC20CC60B112B4508D1004408D000DE
:100638004308CF004208CE000130D2070318D30A7E
:100648000030D3075308803AFF0080307F02031D33
:100658002F2BFF305202031C322B332B3E2B7F30C3
:1006680083120313D1008030D0000030CF00003057
:10067800CE00732B831203135308803AFF00803097
:100688007F02031D492B0130520203184C2B4D2BBE
:10069800592B003083120313D1000030D0000030F2
:1006A800CF000030CE00C701732B8312031352080A
:1006B800C2004208CD00FF30CE05FF30CF057F30A5
:1006C800D0050030D1054D1C6A2B6B2B6C2BD01735
:1006D8004D08C2000310420CC3004308D10047086C
:1006E800C2004208D1045108BD005008BC004F08A0
:1006F800BB004E08BA00080083120313570880395C
:10070800DC005C08E4005708DC005C07DD005D08DD
:10071800E600D61F902B912B922B661466080319BE
:10072800962B972BA72B660A031D9B2B9C2BA42B80
:100738000030D7000030D6000030D5000030D4009B
:10074800D617D701AF2B0030D7000030D6000030C5
:10075800D5000030D4005B088039DC005C08E50077
:10076800650864060319B92BBA2BBB2B64175B0801
:10077800DC005C07DD005D08E500DA1FC42BC52B33
:10078800C62B651465080319CA2BCB2BDB2B650A0E
:10079800031DCF2BD02BD82B0030DB000030DA0024
:1007A8000030D9000030D800DA17DB01E32B003025
:1007B800DB000030DA000030D9000030D8006608CD
:1007C80065020318E82BE92B2D2C641FEC2BED2B6D
:1007D800F12B8030DC005C08E4066608DC005C086D
:1007E800E7006508DC005C08E6006708DC005C08D8
:1007F800E5005408DC005C08E7005808DC005C08E9
:10080800D4006708DC005C08D8005508DC005C08E8
:10081800E7005908DC005C08D5006708DC005C08C4
:10082800D9005608DC005C08E7005A08DC005C08C0
:10083800D6006708DC005C08DA005708DC005C08B2
:10084800E7005B08DC005C08D7006708DC005C0890
:10085800DB00E7016508DC00DD015D08DF006608F4
:100868005C02DE00031CDF035F08803AFF00803073
:100878007F02031D412C1A305E02031C442C452CB8
:10088800822C831203135708560455045404031D7D
:100898004E2C502C0130512C0030DC005C08E70055
:1008A8000030D7000030D6000030D5000030D4002A
:1008B8006508DC005C08E6008A2C671C642C652C43
:1008C8006E2C6708DC0003105C0C0138DD005D0845
:1008D800E700702C0310E70C541C732C742C752C37
:1008E800E7170130DC00570DD70CD60CD50CD40C0B
:1008F800DC0B772C0130DC005C08E607831203135D
:1009080065086602031C892C8A2C612C641B8D2CBB
:100918008E2CD92C6608031D922C932C9C2C00300D
:10092800D7000030D6000030D5000030D400072EA4
:100938005808D407590803110318013E0319A52CB8
:10094800D5075A0803110318013E0319AC2CD60722
:100958005B0803110318013E0319B32CD707571C72
:10096800B62CB72C8D2D671CBA2CBB2CC42C670851
:10097800DC0003105C0C0138DD005D08E700C62CC4
:100988000310E70C541CC92CCA2CCB2CE7170130D8
:10099800DC00570DD70CD60CD50CD40CDC0BCD2CA9
:1009A8000130DC005C08E6078D2D5708803AFF000F
:1009B8005B08803A7F02031DEB2C5A085602031D80
:1009C800EB2C59085502031DEB2C58085402031848
:1009D800EE2CEF2C472DFF30DC00FF30DD00FF3020
:1009E800DE00FF30DF005808E0005908E1005A082F
:1009F800E2005B08E3005408E0025508031C550FA9
:100A0800062D072DE1025608031C560F0C2D0D2D3F
:100A1800E2025708031C570F122D132DE30260083A
:100A2800DC0761080318610F1A2D1B2DDD0762080A
:100A38000318620F202D212DDE0763080318630AAF
:100A4800DF075F08D7005E08D6005D08D5005C08A0
:100A5800D4008030DC005C08E406E709E70A670890
:100A6800031D372D382D552D0130D40700300318BC
:100A78000130D507003003180130D60700300318BD
:100A88000130D707552D5808D4025908031C590FAF
:100A9800D5025A08031C5A0FD6025B08031C5B0FC9
:100AA800D7025708560455045404031D5C2D5D2DC8
:100AB800892D6708031D612D622D892D0030D7000F
:100AC8000030D6000030D5000030D400072E0130A9
:100AD800DC000310D40DD50DD60DD70DDC0B6D2D14
:100AE800E71F772D782D792D5414671C7C2D7D2DCB
:100AF800802D0314E70D822D0310E70D66080319F6
:100B0800862D872D892D0130E602D61F8C2D8D2D3F
:100B18006B2DE501E71F912D922DA02D67087F39D8
:100B28000319972D982D9B2DE501E50AA02D541C3E
:100B38009E2D9F2DA02D982D65080319A42DA52D58
:100B4800D92D0130D407003003180130D507003003
:100B580003180130D607003003180130D707571C97
:100B6800B62DB72DD92D5408DC005508DD005608E0
:100B7800DE005708DF000130E0005F0DDF0CDE0CFF
:100B8800DD0CDC0CE00BC12D5F08D7005E08D60039
:100B98005D08D5005C08D400660A0319D42DD52D4C
:100BA800D92D0130DC005C08E607660A0319DD2D43
:100BB800DE2DE32D6608031DE22DE32DF12D003017
:100BC800D7000030D6000030D5000030D4006608C9
:100BD800031DEF2DF02DF12DE401661CF42DF52DEC
:100BE800F72DD617FB2D7F30DC005C08D60566088C
:100BF800DC0003105C0CDD005D08D700E41F052E47
:100C0800062E072ED71708008312031327088039EA
:100C1800A8002808B1002708A8002807A900290863
:100C2800B800A61F182E192E1A2E381438080319C2
:100C38001E2E1F2E2F2E380A031D232E242E2C2E57
:100C48000030A7000030A6000030A5000030A40046
:100C5800A617A701372E0030A7000030A6000030E5
:100C6800A5000030A40023088039A8002808B10690
:100C78002308A8002807A9002908B900A21F452EA3
:100C8800462E472E3914390803194B2E4C2E5C2E4C
:100C9800390A031D502E512E592E0030A300003062
:100CA800A2000030A1000030A000A217A301642E0A
:100CB8000030A3000030A2000030A1000030A000E6
:100CC8002308220421042004031D6B2E6C2E852E7C
:100CD8000030A7000030A6000030A5000030A400B6
:100CE8008030A6047F30A7043108A8002808A7048C
:100CF8002708A3002608A2002508A1002408A000B0
:100D0800E42F3808031D892E8A2E932E0030A30065
:100D18000030A2000030A1000030A000E42F380805
:100D2800A800A9012908AB0039082802AA00031C59
:100D3800AB032A087F3EB2002B080318013E003E91
:100D4800B3002708B0002608AF002508AE00240825
:100D5800AD000030A7000030A6000030A50000302C
:100D6800A4000030B7000030B6000030B5000030F5
:100D7800B400B901092F39080319C32EC42EE42E73
:100D88000130A8000310AD0DAE0DAF0DB00DA80BCE
:100D9800C62E0130A8000310A40DA50DA60DA70DA1
:100DA800A80BCF2EB71FD92EDA2EDB2E2414013034
:100DB800A8000310B40DB50DB60DB70DA80BDD2EA8
:100DC80023083002031DF22E22082F02031DF22EE3
:100DD80021082E02031DF22E20082D02031CF52ED9
:100DE800F62E052F37172008AD022108031C210F06
:100DF800AE022208031C220FAF022308031C230F94
:100E0800B0020130A8002808B9071A303902031CBB
:100E18000E2F0F2FBF2E30082F042E042D04031978
:100E2800162F172F362F3414362F0130A800031031
:100E3800A40DA50DA60DA70DA80B1B2FB71F252FB9
:100E4800262F272F24140130A8000310B40DB50D48
:100E5800B60DB70DA80B292FFF30B2070318B30A38
:100E6800FF30B307A61F392F3A2F192FB901B71F23
:100E78003E2F3F2F5B2FFF303405A800FF3035058C
:100E8800A900FF303605AA007F303705AB002B08D4
:100E98002A04290428040319522F532F562FB90165
:100EA800B90A5B2F241C592F5A2F5B2F532F39084F
:100EB80003195F2F602F912F0130A407003003180A
:100EC8000130A507003003180130A60700300318C9
:100ED8000130A707271C712F722F912F2408A80013
:100EE8002508A9002608AA002708AB000130AC0095
:100EF8002B0DAB0CAA0CA90CA80CAC0B7C2F2B0847
:100F0800A7002A08A6002908A5002808A40001307F
:100F1800B2070318B30A0030B3073308803AFF005A
:100F280080307F02031D9A2FFF303202031C9D2F51
:100F38009E2FAC2FFF3083120313B2000030B30092
:100F48000030A7000030A6000030A5000030A40043
:100F5800831203133308803AFF0080307F02031D99
:100F6800B72F013032020318BA2FBB2FC82F8312B4
:100F78000313B201B3010030A7000030A60000300F
:100F8800A5000030A400B101831203133208A800A1
:100F98002808B800381CD12FD22FD42FA617D82F45
:100FA8007F30A8002808A6053808A8000310280CD8
:100FB800A9002908A7003108A8002808A7047C2E42
:100FC800080083160313B301B4013608B4003508CA
:100FD800B300330834040319F22FF32FF62F8312CA
:060FE800031308100800CD
:10186000F800F401F5017008F200F3017208F600C7
:101870007308F700781C3D2C3E2C442C7608F407A6
:101880000318F50A7708F50701300310F60DF70D78
:10189000FF3E031D452C0310F80C7808031D512C46
:1018A000522C3A2C7508F1007408F00008000A1256
:1018B0008A15AF240A128A15831203139F18612C0C
:1018C000622C922C1F0C83160313B200320C0F39BA
:1018D000003A031D6C2C6D2C742C831203131F080B
:1018E000C33904389F00872C831203131F0C8316FF
:1018F0000313B200320C0F39013A031D802C812CE6
:10190000872C831203131F08C33908389F000C303B
:1019100083160313B200B20B8B2C00008312031347
:101920009F14A12C1F0C83160313B200320C0F3925
:10193000023A031D9C2C9D2CA12CC330831203134F
:101940009F050C3083160313B200B20BA52C0000C8
:10195000831203139F145C2C0A128A11102807307B
:101960008316031788008901073083160313850047
:10197000831203138501831603130F088F39603810
:101980008F000F14831203131F083F3940389F0044
:10199000831603131F129F12C330831203139F0574
:1019A000831603139F13831203131F140C30831623
:1019B0000313B100B10BDA2C0000831603130715D3
:1019C00087140814FF3092008312031397013F30ED
:1019D00097051708F0390C38970040309500CF3044
:1019E00097059D011D08F0390C389D0040309B0083
:1019F0001D128C10033092041208873908389200A7
:101A000012158C1C042D052D012D8C10831603132B
:101A1000071187100810831203130C138316031386
:101A20000C170B178B170C15831203130C1183164D
:101A30000313811201128111011181140114080094
:101A40000310831203136A0D6B0D83160313A0009A
:101A5000200883120313ED006D08031D302D312D76
:101A60003A2D0030EB000030EA000030E900003091
:101A7000E800BB2D680883160313A000831203132C
:101A8000690883160313A100831203136A088316DF
:101A90000313A200831203136B0883160313A3001E
:101AA0001F300310A30CA20CA10CA00CFF3E031DC1
:101AB000512D2008A400240883120313EC00EA1718
:101AC000FF30E805FF30E905FF30EA050030EB059F
:101AD0009630ED02ED1F6D2D6E2D8C2D6D08803A28
:101AE000973E0318742D752D762D312D013003107E
:101AF000EB0CEA0CE90CE80CFF3E031D772D0130DE
:101B000083160313A000200883120313ED07031D9F
:101B10008A2D8B2D762DAB2D20306D02031C912D3F
:101B2000922DA62D312D013083160313A000031032
:101B300083120313E80DE90DEA0DEB0D8316031371
:101B4000A00B972D013083120313ED026D08031DC6
:101B5000AA2DAB2D932D6C080319AF2DB02DBB2DE5
:101B6000E809E909EA09EB09E80A0319E90A03198E
:101B7000EA0A0319EB0A080083120313EE00831626
:101B800003132708F0002808F100F201F3010030E8
:101B90000A128A156E260A128A1573088312031315
:101BA000DB007208DA007108D9007008D8008316CB
:101BB000031327082902F0002808031C280A2A0218
:101BC000F100F201F30100300A128A156E260A12A2
:101BD0008A15730883120313A7007208A600710800
:101BE000A5007008A4008316031325082602F00040
:101BF000F101031CF103F201F11BF2037208F3007F
:101C000001300A128A156E260A128A157308831289
:101C10000313A3007208A2007108A1007008A000BD
:101C20000A128A1108260A128A158312031323083E
:101C3000C1002208C0002108BF002008BE00831692
:101C400003132508831203136E02F000F101031C35
:101C5000F103F201F11BF2037208F30001300A12E2
:101C60008A156E260A128A15730883120313BD00A3
:101C70007208BC007108BB007008BA000A128A1111
:101C80001F200A128A15831203133D08D7003C084F
:101C9000D6003B08D5003A08D4000A128A118023E6
:101CA0000A128A15831203135708EB005608EA003C
:101CB0005508E9005408E8000A128A1520250A127E
:101CC0008A1583120313690883160313A60083126F
:101CD0000313680883160313A5000800F8007808AA
:101CE0000319732E742E882EF31F772E782E882ECC
:101CF0007009FA007109FB007209FC007309FD000C
:101D0000FA0A0319FB0A0319FC0A0319FD0A902EAB
:101D10007308FD007208FC007108FB007008FA00EF
:101D20007308720471047004031D972E982EA12E5F
:101D30000030F3000030F2000030F1000030F0001D
:101D4000272F9630F4007408F900B32E0130F40008
:101D50007408F90701300310FD0CFC0CFB0CFA0CA5
:101D6000FF3E031DAB2EFE307D05031DB82EB92EA0
:101D7000A62ED52E0130F4007408F9070130FA07B9
:101D8000003003180130FB07003003180130FC0756
:101D9000003003180130FD0701300310FD0CFC0C6E
:101DA000FB0CFA0CFF3E031DCD2EFF307D05031DFD
:101DB000DA2EDB2EBA2EE72E0130F9020130F400C4
:101DC0000310FA0DFB0DFC0DFD0DF40BE02EFC1BBA
:101DD000EA2EEB2EF12E023079020318F02EF12EAE
:101DE000DC2E7918F42EF52EFD2EFF30FA05FF308B
:101DF000FB057F30FC05FF30FD050310F90C790869
:101E0000F400F501F601F70118300310F40DF50D9B
:101E1000F60DF70DFF3E031D052F7408FA04750833
:101E2000FB047608FC047708FD0478080319192FD1
:101E30001A2F1F2FF31F1D2F1E2F1F2FFD177D0879
:101E4000F3007C08F2007B08F1007A08F00008003B
:101E5000831203130C1F2D2F2E2FE42F1F0C83161C
:101E60000313AB002B0C0F39003A031D382F392F09
:101E7000732FA501FF30AB002B08A6000030A70090
:101E8000A800F430A9000130AA00831203131E0831
:101E90000A128A15BC250A128A158316031326080E
:101EA000B8002508B7003808AC003708AB000310AD
:101EB000AC0CAB0C0310AC0CAB0C2B088312031353
:101EC00095008316031337080339AB00AB0E83125A
:101ED00003131708831603132B06CF392B0683121F
:101EE00003139700E12F831203131F0C83160313B0
:101EF000AB002B0C0F39013A031D7F2F802FBA2F17
:101F0000A501FF30AB002B08A6000030A700A800F9
:101F1000F430A9000130AA00831203131E080A122C
:101F20008A15BC250A128A15831603132608B800E1
:101F30002508B7003808AC003708AB000310AC0C1C
:101F4000AB0C0310AC0CAB0C2B08831203139B00DF
:101F50008316031337080339AB00AB0E8312031348
:101F60001D08831603132B06EF392B068312031368
:101F70009D00E12F831203131F0C83160313AB0084
:101F80002B0C0F39023A031DC62FC72FE12F8312E6
:101F90000313050C83160313AB002B0C0139AC00A3
:101FA000AD012C08B5002D08B6008312031397016C
:101FB0001708F039023897000A128A11E5270A1229
:101FC0008A15831203130C130B1DE72FE82FF52F2F
:101FD000013083160313B3070318B40A0030B407A3
:101FE000F9308312031381000B1183160313300899
:101FF000FF002F088A002E0E8300FE0E7E0E0900C1
:08400000FF3FFF3FFF3FFF3FC0
:04400E00D420FF3F7C
:00000001FF
